{
  "_format": "hh-sol-artifact-1",
  "contractName": "SupplyChainTracker",
  "sourceName": "contracts/SupplyChainTracker.sol",
  "abi": [
    {
      "inputs": [],
      "stateMutability": "nonpayable",
      "type": "constructor"
    },
    {
      "anonymous": false,
      "inputs": [
        {
          "indexed": true,
          "internalType": "uint256",
          "name": "productId",
          "type": "uint256"
        },
        {
          "indexed": false,
          "internalType": "string",
          "name": "name",
          "type": "string"
        },
        {
          "indexed": false,
          "internalType": "address",
          "name": "manufacturer",
          "type": "address"
        }
      ],
      "name": "ProductCreated",
      "type": "event"
    },
    {
      "anonymous": false,
      "inputs": [
        {
          "indexed": true,
          "internalType": "uint256",
          "name": "productId",
          "type": "uint256"
        },
        {
          "indexed": false,
          "internalType": "enum SupplyChainTracker.Status",
          "name": "newStatus",
          "type": "uint8"
        }
      ],
      "name": "ProductStatusUpdated",
      "type": "event"
    },
    {
      "anonymous": false,
      "inputs": [
        {
          "indexed": true,
          "internalType": "uint256",
          "name": "productId",
          "type": "uint256"
        },
        {
          "indexed": false,
          "internalType": "address",
          "name": "from",
          "type": "address"
        },
        {
          "indexed": false,
          "internalType": "address",
          "name": "to",
          "type": "address"
        },
        {
          "indexed": false,
          "internalType": "string",
          "name": "location",
          "type": "string"
        }
      ],
      "name": "ProductTransferred",
      "type": "event"
    },
    {
      "inputs": [],
      "name": "DISTRIBUTOR_ROLE",
      "outputs": [
        {
          "internalType": "bytes32",
          "name": "",
          "type": "bytes32"
        }
      ],
      "stateMutability": "view",
      "type": "function"
    },
    {
      "inputs": [],
      "name": "MANUFACTURER_ROLE",
      "outputs": [
        {
          "internalType": "bytes32",
          "name": "",
          "type": "bytes32"
        }
      ],
      "stateMutability": "view",
      "type": "function"
    },
    {
      "inputs": [],
      "name": "RETAILER_ROLE",
      "outputs": [
        {
          "internalType": "bytes32",
          "name": "",
          "type": "bytes32"
        }
      ],
      "stateMutability": "view",
      "type": "function"
    },
    {
      "inputs": [],
      "name": "admin",
      "outputs": [
        {
          "internalType": "address",
          "name": "",
          "type": "address"
        }
      ],
      "stateMutability": "view",
      "type": "function"
    },
    {
      "inputs": [
        {
          "internalType": "string",
          "name": "name",
          "type": "string"
        },
        {
          "internalType": "string",
          "name": "location",
          "type": "string"
        }
      ],
      "name": "createProduct",
      "outputs": [
        {
          "internalType": "uint256",
          "name": "",
          "type": "uint256"
        }
      ],
      "stateMutability": "nonpayable",
      "type": "function"
    },
    {
      "inputs": [
        {
          "internalType": "uint256",
          "name": "productId",
          "type": "uint256"
        },
        {
          "internalType": "uint256",
          "name": "index",
          "type": "uint256"
        }
      ],
      "name": "getCheckpoint",
      "outputs": [
        {
          "internalType": "string",
          "name": "location",
          "type": "string"
        },
        {
          "internalType": "uint256",
          "name": "timestamp",
          "type": "uint256"
        },
        {
          "internalType": "address",
          "name": "handledBy",
          "type": "address"
        }
      ],
      "stateMutability": "view",
      "type": "function"
    },
    {
      "inputs": [
        {
          "internalType": "uint256",
          "name": "productId",
          "type": "uint256"
        }
      ],
      "name": "getProduct",
      "outputs": [
        {
          "internalType": "uint256",
          "name": "id",
          "type": "uint256"
        },
        {
          "internalType": "string",
          "name": "name",
          "type": "string"
        },
        {
          "internalType": "address",
          "name": "currentOwner",
          "type": "address"
        },
        {
          "internalType": "enum SupplyChainTracker.Status",
          "name": "status",
          "type": "uint8"
        },
        {
          "internalType": "uint256",
          "name": "historyLength",
          "type": "uint256"
        }
      ],
      "stateMutability": "view",
      "type": "function"
    },
    {
      "inputs": [],
      "name": "getProductCount",
      "outputs": [
        {
          "internalType": "uint256",
          "name": "",
          "type": "uint256"
        }
      ],
      "stateMutability": "view",
      "type": "function"
    },
    {
      "inputs": [
        {
          "internalType": "uint256",
          "name": "productId",
          "type": "uint256"
        },
        {
          "internalType": "address",
          "name": "from",
          "type": "address"
        }
      ],
      "name": "getTransferHash",
      "outputs": [
        {
          "internalType": "bytes32",
          "name": "",
          "type": "bytes32"
        }
      ],
      "stateMutability": "pure",
      "type": "function"
    },
    {
      "inputs": [
        {
          "internalType": "bytes32",
          "name": "role",
          "type": "bytes32"
        },
        {
          "internalType": "address",
          "name": "account",
          "type": "address"
        }
      ],
      "name": "grantRole",
      "outputs": [],
      "stateMutability": "nonpayable",
      "type": "function"
    },
    {
      "inputs": [
        {
          "internalType": "bytes32",
          "name": "role",
          "type": "bytes32"
        },
        {
          "internalType": "address",
          "name": "account",
          "type": "address"
        }
      ],
      "name": "hasRole",
      "outputs": [
        {
          "internalType": "bool",
          "name": "",
          "type": "bool"
        }
      ],
      "stateMutability": "view",
      "type": "function"
    },
    {
      "inputs": [
        {
          "internalType": "uint256",
          "name": "productId",
          "type": "uint256"
        },
        {
          "internalType": "string",
          "name": "location",
          "type": "string"
        }
      ],
      "name": "markDelivered",
      "outputs": [],
      "stateMutability": "nonpayable",
      "type": "function"
    },
    {
      "inputs": [
        {
          "internalType": "uint256",
          "name": "productId",
          "type": "uint256"
        }
      ],
      "name": "markExpired",
      "outputs": [],
      "stateMutability": "nonpayable",
      "type": "function"
    },
    {
      "inputs": [
        {
          "internalType": "bytes32",
          "name": "role",
          "type": "bytes32"
        },
        {
          "internalType": "address",
          "name": "account",
          "type": "address"
        }
      ],
      "name": "revokeRole",
      "outputs": [],
      "stateMutability": "nonpayable",
      "type": "function"
    },
    {
      "inputs": [
        {
          "internalType": "uint256",
          "name": "productId",
          "type": "uint256"
        },
        {
          "internalType": "address",
          "name": "to",
          "type": "address"
        },
        {
          "internalType": "string",
          "name": "location",
          "type": "string"
        },
        {
          "internalType": "bytes",
          "name": "receiverSignature",
          "type": "bytes"
        }
      ],
      "name": "transferProduct",
      "outputs": [],
      "stateMutability": "nonpayable",
      "type": "function"
    }
  ],
  "bytecode": "0x608060405234801561001057600080fd5b50336000806101000a81548173ffffffffffffffffffffffffffffffffffffffff021916908373ffffffffffffffffffffffffffffffffffffffff160217905550612b56806100606000396000f3fe608060405234801561001057600080fd5b50600436106100f55760003560e01c8063965288b011610097578063e84ecd8711610066578063e84ecd871461028a578063ea23ddca146102ba578063f0bd87cc146102d6578063f851a440146102f4576100f5565b8063965288b0146101ea578063b9db15b414610208578063c097227d1461023c578063d547741f1461026e576100f5565b80635e390580116100d35780635e3905801461015257806377fd00c51461016e57806387592bce1461018a57806391d14854146101ba576100f5565b80632115e7bf146100fa5780632f2ff15d146101185780634a348da914610134575b600080fd5b610102610312565b60405161010f919061166e565b60405180910390f35b610132600480360381019061012d9190611727565b61033a565b005b61013c6104a3565b6040516101499190611780565b60405180910390f35b61016c6004803603810190610167919061190d565b6104ad565b005b61018860048036038101906101839190611969565b610726565b005b6101a4600480360381019061019f9190611996565b6108b7565b6040516101b19190611780565b60405180910390f35b6101d460048036038101906101cf9190611727565b610b49565b6040516101e19190611a29565b60405180910390f35b6101f2610bb1565b6040516101ff919061166e565b60405180910390f35b610222600480360381019061021d9190611969565b610bd9565b604051610233959493929190611b49565b60405180910390f35b61025660048036038101906102519190611ba3565b610d27565b60405161026593929190611be3565b60405180910390f35b61028860048036038101906102839190611727565b610ec4565b005b6102a4600480360381019061029f9190611c21565b610fbf565b6040516102b1919061166e565b60405180910390f35b6102d460048036038101906102cf9190611d02565b610ff2565b005b6102de611521565b6040516102eb919061166e565b60405180910390f35b6102fc611549565b6040516103099190611da1565b60405180910390f35b60405160200161032190611e13565b6040516020818303038152906040528051906020012081565b60008054906101000a900473ffffffffffffffffffffffffffffffffffffffff1673ffffffffffffffffffffffffffffffffffffffff163373ffffffffffffffffffffffffffffffffffffffff16146103c8576040517f08c379a00000000000000000000000000000000000000000000000000000000081526004016103bf90611e74565b60405180910390fd5b600073ffffffffffffffffffffffffffffffffffffffff168173ffffffffffffffffffffffffffffffffffffffff1603610437576040517f08c379a000000000000000000000000000000000000000000000000000000000815260040161042e90611f06565b60405180910390fd5b600180600084815260200190815260200160002060008373ffffffffffffffffffffffffffffffffffffffff1673ffffffffffffffffffffffffffffffffffffffff16815260200190815260200160002060006101000a81548160ff0219169083151502179055505050565b6000600254905090565b813373ffffffffffffffffffffffffffffffffffffffff166003600083815260200190815260200160002060020160009054906101000a900473ffffffffffffffffffffffffffffffffffffffff1673ffffffffffffffffffffffffffffffffffffffff1614610552576040517f08c379a000000000000000000000000000000000000000000000000000000000815260040161054990611f72565b60405180910390fd5b6001600381111561056657610565611ad2565b5b6003600085815260200190815260200160002060020160149054906101000a900460ff16600381111561059c5761059b611ad2565b5b146105dc576040517f08c379a00000000000000000000000000000000000000000000000000000000081526004016105d390611fde565b60405180910390fd5b600060036000858152602001908152602001600020905060028160020160146101000a81548160ff0219169083600381111561061b5761061a611ad2565b5b02179055508060030160405180606001604052808581526020014281526020013373ffffffffffffffffffffffffffffffffffffffff1681525090806001815401808255809150506001900390600052602060002090600302016000909190919091506000820151816000019081610693919061220a565b506020820151816001015560408201518160020160006101000a81548173ffffffffffffffffffffffffffffffffffffffff021916908373ffffffffffffffffffffffffffffffffffffffff1602179055505050837fb8a3401adfc11253c3aff18e4b48103cec45c852b9afc487c23f32e26746242c600260405161071891906122dc565b60405180910390a250505050565b60008054906101000a900473ffffffffffffffffffffffffffffffffffffffff1673ffffffffffffffffffffffffffffffffffffffff163373ffffffffffffffffffffffffffffffffffffffff16146107b4576040517f08c379a00000000000000000000000000000000000000000000000000000000081526004016107ab90612343565b60405180910390fd5b6003808111156107c7576107c6611ad2565b5b6003600083815260200190815260200160002060020160149054906101000a900460ff1660038111156107fd576107fc611ad2565b5b0361083d576040517f08c379a0000000000000000000000000000000000000000000000000000000008152600401610834906123af565b60405180910390fd5b600380600083815260200190815260200160002060020160146101000a81548160ff0219169083600381111561087657610875611ad2565b5b0217905550807fb8a3401adfc11253c3aff18e4b48103cec45c852b9afc487c23f32e26746242c60036040516108ac91906122dc565b60405180910390a250565b60006040516020016108c89061241b565b604051602081830303815290604052805190602001206001600082815260200190815260200160002060003373ffffffffffffffffffffffffffffffffffffffff1673ffffffffffffffffffffffffffffffffffffffff16815260200190815260200160002060009054906101000a900460ff1661097b576040517f08c379a00000000000000000000000000000000000000000000000000000000081526004016109729061247c565b60405180910390fd5b6002600081548092919061098e906124cb565b9190505550600060025490506000600360008381526020019081526020016000209050818160000181905550858160010190816109cb919061220a565b50338160020160006101000a81548173ffffffffffffffffffffffffffffffffffffffff021916908373ffffffffffffffffffffffffffffffffffffffff16021790555060008160020160146101000a81548160ff02191690836003811115610a3757610a36611ad2565b5b02179055508060030160405180606001604052808781526020014281526020013373ffffffffffffffffffffffffffffffffffffffff1681525090806001815401808255809150506001900390600052602060002090600302016000909190919091506000820151816000019081610aaf919061220a565b506020820151816001015560408201518160020160006101000a81548173ffffffffffffffffffffffffffffffffffffffff021916908373ffffffffffffffffffffffffffffffffffffffff1602179055505050817faf6ffb6277511513e7d579327cc1fc57f0266df2fb11a60b13487b8c9cd2c3888733604051610b35929190612513565b60405180910390a281935050505092915050565b60006001600084815260200190815260200160002060008373ffffffffffffffffffffffffffffffffffffffff1673ffffffffffffffffffffffffffffffffffffffff16815260200190815260200160002060009054906101000a900460ff16905092915050565b604051602001610bc09061241b565b6040516020818303038152906040528051906020012081565b600060606000806000806003600088815260200190815260200160002090506000816000015403610c3f576040517f08c379a0000000000000000000000000000000000000000000000000000000008152600401610c369061258f565b60405180910390fd5b8060000154816001018260020160009054906101000a900473ffffffffffffffffffffffffffffffffffffffff168360020160149054906101000a900460ff168460030180549050838054610c939061202d565b80601f0160208091040260200160405190810160405280929190818152602001828054610cbf9061202d565b8015610d0c5780601f10610ce157610100808354040283529160200191610d0c565b820191906000526020600020905b815481529060010190602001808311610cef57829003601f168201915b50505050509350955095509550955095505091939590929450565b606060008060006003600087815260200190815260200160002090506000816000015403610d8a576040517f08c379a0000000000000000000000000000000000000000000000000000000008152600401610d819061258f565b60405180910390fd5b80600301805490508510610dd3576040517f08c379a0000000000000000000000000000000000000000000000000000000008152600401610dca906125fb565b60405180910390fd5b6000816003018681548110610deb57610dea61261b565b5b906000526020600020906003020190508060000181600101548260020160009054906101000a900473ffffffffffffffffffffffffffffffffffffffff16828054610e359061202d565b80601f0160208091040260200160405190810160405280929190818152602001828054610e619061202d565b8015610eae5780601f10610e8357610100808354040283529160200191610eae565b820191906000526020600020905b815481529060010190602001808311610e9157829003601f168201915b5050505050925094509450945050509250925092565b60008054906101000a900473ffffffffffffffffffffffffffffffffffffffff1673ffffffffffffffffffffffffffffffffffffffff163373ffffffffffffffffffffffffffffffffffffffff1614610f52576040517f08c379a0000000000000000000000000000000000000000000000000000000008152600401610f4990612696565b60405180910390fd5b60006001600084815260200190815260200160002060008373ffffffffffffffffffffffffffffffffffffffff1673ffffffffffffffffffffffffffffffffffffffff16815260200190815260200160002060006101000a81548160ff0219169083151502179055505050565b60008282604051602001610fd492919061271f565b60405160208183030381529060405280519060200120905092915050565b833373ffffffffffffffffffffffffffffffffffffffff166003600083815260200190815260200160002060020160009054906101000a900473ffffffffffffffffffffffffffffffffffffffff1673ffffffffffffffffffffffffffffffffffffffff1614611097576040517f08c379a000000000000000000000000000000000000000000000000000000000815260040161108e90611f72565b60405180910390fd5b600073ffffffffffffffffffffffffffffffffffffffff168473ffffffffffffffffffffffffffffffffffffffff1603611106576040517f08c379a00000000000000000000000000000000000000000000000000000000081526004016110fd90612797565b60405180910390fd5b60038081111561111957611118611ad2565b5b6003600087815260200190815260200160002060020160149054906101000a900460ff16600381111561114f5761114e611ad2565b5b0361118f576040517f08c379a000000000000000000000000000000000000000000000000000000000815260040161118690612803565b60405180910390fd5b600160006040516020016111a29061286f565b60405160208183030381529060405280519060200120815260200190815260200160002060008573ffffffffffffffffffffffffffffffffffffffff1673ffffffffffffffffffffffffffffffffffffffff16815260200190815260200160002060009054906101000a900460ff168061129a57506001600060405160200161122a90611e13565b60405160208183030381529060405280519060200120815260200190815260200160002060008573ffffffffffffffffffffffffffffffffffffffff1673ffffffffffffffffffffffffffffffffffffffff16815260200190815260200160002060009054906101000a900460ff165b6112d9576040517f08c379a00000000000000000000000000000000000000000000000000000000081526004016112d0906128f6565b60405180910390fd5b60006112e58633610fbf565b905060006112f3828561156d565b90508573ffffffffffffffffffffffffffffffffffffffff168173ffffffffffffffffffffffffffffffffffffffff1614611363576040517f08c379a000000000000000000000000000000000000000000000000000000000815260040161135a90612962565b60405180910390fd5b600060036000898152602001908152602001600020905060008160020160009054906101000a900473ffffffffffffffffffffffffffffffffffffffff169050878260020160006101000a81548173ffffffffffffffffffffffffffffffffffffffff021916908373ffffffffffffffffffffffffffffffffffffffff16021790555060018260020160146101000a81548160ff0219169083600381111561140e5761140d611ad2565b5b02179055508160030160405180606001604052808981526020014281526020013373ffffffffffffffffffffffffffffffffffffffff1681525090806001815401808255809150506001900390600052602060002090600302016000909190919091506000820151816000019081611486919061220a565b506020820151816001015560408201518160020160006101000a81548173ffffffffffffffffffffffffffffffffffffffff021916908373ffffffffffffffffffffffffffffffffffffffff1602179055505050887f7b9954163fa07d871126e4bf9e86dd39a340304d4ffa6a8f7b5eae106152ee03828a8a60405161150e93929190612982565b60405180910390a2505050505050505050565b6040516020016115309061286f565b6040516020818303038152906040528051906020012081565b60008054906101000a900473ffffffffffffffffffffffffffffffffffffffff1681565b600080836040516020016115819190612a2d565b60405160208183030381529060405280519060200120905060418351146115dd576040517f08c379a00000000000000000000000000000000000000000000000000000000081526004016115d490612a9f565b60405180910390fd5b60008060006020860151925060408601519150606086015160001a90506001848285856040516000815260200160405260405161161d9493929190612adb565b6020604051602081039080840390855afa15801561163f573d6000803e3d6000fd5b5050506020604051035194505050505092915050565b6000819050919050565b61166881611655565b82525050565b6000602082019050611683600083018461165f565b92915050565b6000604051905090565b600080fd5b600080fd5b6116a681611655565b81146116b157600080fd5b50565b6000813590506116c38161169d565b92915050565b600073ffffffffffffffffffffffffffffffffffffffff82169050919050565b60006116f4826116c9565b9050919050565b611704816116e9565b811461170f57600080fd5b50565b600081359050611721816116fb565b92915050565b6000806040838503121561173e5761173d611693565b5b600061174c858286016116b4565b925050602061175d85828601611712565b9150509250929050565b6000819050919050565b61177a81611767565b82525050565b60006020820190506117956000830184611771565b92915050565b6117a481611767565b81146117af57600080fd5b50565b6000813590506117c18161179b565b92915050565b600080fd5b600080fd5b6000601f19601f8301169050919050565b7f4e487b7100000000000000000000000000000000000000000000000000000000600052604160045260246000fd5b61181a826117d1565b810181811067ffffffffffffffff82111715611839576118386117e2565b5b80604052505050565b600061184c611689565b90506118588282611811565b919050565b600067ffffffffffffffff821115611878576118776117e2565b5b611881826117d1565b9050602081019050919050565b82818337600083830152505050565b60006118b06118ab8461185d565b611842565b9050828152602081018484840111156118cc576118cb6117cc565b5b6118d784828561188e565b509392505050565b600082601f8301126118f4576118f36117c7565b5b813561190484826020860161189d565b91505092915050565b6000806040838503121561192457611923611693565b5b6000611932858286016117b2565b925050602083013567ffffffffffffffff81111561195357611952611698565b5b61195f858286016118df565b9150509250929050565b60006020828403121561197f5761197e611693565b5b600061198d848285016117b2565b91505092915050565b600080604083850312156119ad576119ac611693565b5b600083013567ffffffffffffffff8111156119cb576119ca611698565b5b6119d7858286016118df565b925050602083013567ffffffffffffffff8111156119f8576119f7611698565b5b611a04858286016118df565b9150509250929050565b60008115159050919050565b611a2381611a0e565b82525050565b6000602082019050611a3e6000830184611a1a565b92915050565b600081519050919050565b600082825260208201905092915050565b60005b83811015611a7e578082015181840152602081019050611a63565b60008484015250505050565b6000611a9582611a44565b611a9f8185611a4f565b9350611aaf818560208601611a60565b611ab8816117d1565b840191505092915050565b611acc816116e9565b82525050565b7f4e487b7100000000000000000000000000000000000000000000000000000000600052602160045260246000fd5b60048110611b1257611b11611ad2565b5b50565b6000819050611b2382611b01565b919050565b6000611b3382611b15565b9050919050565b611b4381611b28565b82525050565b600060a082019050611b5e6000830188611771565b8181036020830152611b708187611a8a565b9050611b7f6040830186611ac3565b611b8c6060830185611b3a565b611b996080830184611771565b9695505050505050565b60008060408385031215611bba57611bb9611693565b5b6000611bc8858286016117b2565b9250506020611bd9858286016117b2565b9150509250929050565b60006060820190508181036000830152611bfd8186611a8a565b9050611c0c6020830185611771565b611c196040830184611ac3565b949350505050565b60008060408385031215611c3857611c37611693565b5b6000611c46858286016117b2565b9250506020611c5785828601611712565b9150509250929050565b600067ffffffffffffffff821115611c7c57611c7b6117e2565b5b611c85826117d1565b9050602081019050919050565b6000611ca5611ca084611c61565b611842565b905082815260208101848484011115611cc157611cc06117cc565b5b611ccc84828561188e565b509392505050565b600082601f830112611ce957611ce86117c7565b5b8135611cf9848260208601611c92565b91505092915050565b60008060008060808587031215611d1c57611d1b611693565b5b6000611d2a878288016117b2565b9450506020611d3b87828801611712565b935050604085013567ffffffffffffffff811115611d5c57611d5b611698565b5b611d68878288016118df565b925050606085013567ffffffffffffffff811115611d8957611d88611698565b5b611d9587828801611cd4565b91505092959194509250565b6000602082019050611db66000830184611ac3565b92915050565b600081905092915050565b7f52455441494c45525f524f4c4500000000000000000000000000000000000000600082015250565b6000611dfd600d83611dbc565b9150611e0882611dc7565b600d82019050919050565b6000611e1e82611df0565b9150819050919050565b7f4f6e6c792061646d696e2063616e206772616e7420726f6c6573000000000000600082015250565b6000611e5e601a83611a4f565b9150611e6982611e28565b602082019050919050565b60006020820190508181036000830152611e8d81611e51565b9050919050565b7f43616e6e6f74206772616e7420726f6c6520746f207a65726f2061646472657360008201527f7300000000000000000000000000000000000000000000000000000000000000602082015250565b6000611ef0602183611a4f565b9150611efb82611e94565b604082019050919050565b60006020820190508181036000830152611f1f81611ee3565b9050919050565b7f4e6f74207468652063757272656e74206f776e65720000000000000000000000600082015250565b6000611f5c601583611a4f565b9150611f6782611f26565b602082019050919050565b60006020820190508181036000830152611f8b81611f4f565b9050919050565b7f50726f64756374206d75737420626520496e5472616e73697400000000000000600082015250565b6000611fc8601983611a4f565b9150611fd382611f92565b602082019050919050565b60006020820190508181036000830152611ff781611fbb565b9050919050565b7f4e487b7100000000000000000000000000000000000000000000000000000000600052602260045260246000fd5b6000600282049050600182168061204557607f821691505b60208210810361205857612057611ffe565b5b50919050565b60008190508160005260206000209050919050565b60006020601f8301049050919050565b600082821b905092915050565b6000600883026120c07fffffffffffffffffffffffffffffffffffffffffffffffffffffffffffffffff82612083565b6120ca8683612083565b95508019841693508086168417925050509392505050565b6000819050919050565b60006121076121026120fd84611767565b6120e2565b611767565b9050919050565b6000819050919050565b612121836120ec565b61213561212d8261210e565b848454612090565b825550505050565b600090565b61214a61213d565b612155818484612118565b505050565b5b818110156121795761216e600082612142565b60018101905061215b565b5050565b601f8211156121be5761218f8161205e565b61219884612073565b810160208510156121a7578190505b6121bb6121b385612073565b83018261215a565b50505b505050565b600082821c905092915050565b60006121e1600019846008026121c3565b1980831691505092915050565b60006121fa83836121d0565b9150826002028217905092915050565b61221382611a44565b67ffffffffffffffff81111561222c5761222b6117e2565b5b612236825461202d565b61224182828561217d565b600060209050601f8311600181146122745760008415612262578287015190505b61226c85826121ee565b8655506122d4565b601f1984166122828661205e565b60005b828110156122aa57848901518255600182019150602085019450602081019050612285565b868310156122c757848901516122c3601f8916826121d0565b8355505b6001600288020188555050505b505050505050565b60006020820190506122f16000830184611b3a565b92915050565b7f4f6e6c792061646d696e00000000000000000000000000000000000000000000600082015250565b600061232d600a83611a4f565b9150612338826122f7565b602082019050919050565b6000602082019050818103600083015261235c81612320565b9050919050565b7f416c726561647920657870697265640000000000000000000000000000000000600082015250565b6000612399600f83611a4f565b91506123a482612363565b602082019050919050565b600060208201905081810360008301526123c88161238c565b9050919050565b7f4d414e5546414354555245525f524f4c45000000000000000000000000000000600082015250565b6000612405601183611dbc565b9150612410826123cf565b601182019050919050565b6000612426826123f8565b9150819050919050565b7f4163636573732064656e6965643a2077726f6e6720726f6c6500000000000000600082015250565b6000612466601983611a4f565b915061247182612430565b602082019050919050565b6000602082019050818103600083015261249581612459565b9050919050565b7f4e487b7100000000000000000000000000000000000000000000000000000000600052601160045260246000fd5b60006124d682611767565b91507fffffffffffffffffffffffffffffffffffffffffffffffffffffffffffffffff82036125085761250761249c565b5b600182019050919050565b6000604082019050818103600083015261252d8185611a8a565b905061253c6020830184611ac3565b9392505050565b7f50726f6475637420646f6573206e6f7420657869737400000000000000000000600082015250565b6000612579601683611a4f565b915061258482612543565b602082019050919050565b600060208201905081810360008301526125a88161256c565b9050919050565b7f436865636b706f696e7420696e646578206f7574206f662072616e6765000000600082015250565b60006125e5601d83611a4f565b91506125f0826125af565b602082019050919050565b60006020820190508181036000830152612614816125d8565b9050919050565b7f4e487b7100000000000000000000000000000000000000000000000000000000600052603260045260246000fd5b7f4f6e6c792061646d696e2063616e207265766f6b6520726f6c65730000000000600082015250565b6000612680601b83611a4f565b915061268b8261264a565b602082019050919050565b600060208201905081810360008301526126af81612673565b9050919050565b6000819050919050565b6126d16126cc82611767565b6126b6565b82525050565b60008160601b9050919050565b60006126ef826126d7565b9050919050565b6000612701826126e4565b9050919050565b612719612714826116e9565b6126f6565b82525050565b600061272b82856126c0565b60208201915061273b8284612708565b6014820191508190509392505050565b7f43616e6e6f74207472616e7366657220746f207a65726f206164647265737300600082015250565b6000612781601f83611a4f565b915061278c8261274b565b602082019050919050565b600060208201905081810360008301526127b081612774565b9050919050565b7f50726f6475637420697320657870697265640000000000000000000000000000600082015250565b60006127ed601283611a4f565b91506127f8826127b7565b602082019050919050565b6000602082019050818103600083015261281c816127e0565b9050919050565b7f4449535452494255544f525f524f4c4500000000000000000000000000000000600082015250565b6000612859601083611dbc565b915061286482612823565b601082019050919050565b600061287a8261284c565b9150819050919050565b7f5265636569766572206d7573742062652061206469737472696275746f72206f60008201527f722072657461696c657200000000000000000000000000000000000000000000602082015250565b60006128e0602a83611a4f565b91506128eb82612884565b604082019050919050565b6000602082019050818103600083015261290f816128d3565b9050919050565b7f496e76616c6964207265636569766572207369676e6174757265000000000000600082015250565b600061294c601a83611a4f565b915061295782612916565b602082019050919050565b6000602082019050818103600083015261297b8161293f565b9050919050565b60006060820190506129976000830186611ac3565b6129a46020830185611ac3565b81810360408301526129b68184611a8a565b9050949350505050565b7f19457468657265756d205369676e6564204d6573736167653a0a333200000000600082015250565b60006129f6601c83611dbc565b9150612a01826129c0565b601c82019050919050565b6000819050919050565b612a27612a2282611655565b612a0c565b82525050565b6000612a38826129e9565b9150612a448284612a16565b60208201915081905092915050565b7f496e76616c6964207369676e6174757265206c656e6774680000000000000000600082015250565b6000612a89601883611a4f565b9150612a9482612a53565b602082019050919050565b60006020820190508181036000830152612ab881612a7c565b9050919050565b600060ff82169050919050565b612ad581612abf565b82525050565b6000608082019050612af0600083018761165f565b612afd6020830186612acc565b612b0a604083018561165f565b612b17606083018461165f565b9594505050505056fea264697066735822122063918b88ddd4330848aa48fb977bae1fa289bdd4bdb781f681bf42b59217bf9064736f6c63430008140033",
  "linkReferences": {},
  "deployedLinkReferences": {}
}